:20000000003A01206DF8010039FB021039FB021039FB021039FB021039FB021039FB02107B
:1C00200039FB021039FB021039FB021039FB021039FB021039FB021011FB021002
:20004000BA492DE9F04F0446B74ADFF8E8920E68A578507800279046ADF1540D29460C29B1
:2000600007D9DFF8CCB2DFF8D0A2203933290FD953E3DFE811F06D055E0543052D050D0506
:20008000F704F304DD04C7045203BA04B6049604DFE811F083047F047B046B046704EC0242
:2000A00051042F04B10287024303430343034303430343030B04F003D303B80359029D034A
:2000C0003402FC01430343034303430343034303E801B5019C0143038C03790183037703BE
:2000E0006A0354012A01E500660362035803C000480382004503670046003400E1788DF871
:200100002A7031F07F0006D011F07F0F0CBF381C0120CA49087053210DF12A0300F004BD25
:2001200008F1110332203946012226F001F808F1120333203946012225F0FAFFC84898F8FE
:2001400011100078012905D04FF400611EF0B8FC00F001BD4FF40061642226F078FB00F050
:20016000FABC8DF82B7078B9E41C204626F020FA0546A01C0446083026F01AFA0246214680
:20018000284624F08EF900E012208DF82B0051210DF12B0300F0C8BCE01C26F009FAE51C6C
:2001A000AE784FF6FF748DF80A600546ADF80850AC4218D0E01EA84215D0A01EA84212D0FD
:2001C00002208DF80C00ADF80E5003A81BF00EFE012818BF4FF001090CD1BDF80E00ADF819
:2001E0000800012000E038468DF80B0002A81DF0AFFC8146E41EAC4204DC012088F82A0024
:2002000088F82B6021F064FD8DF82C904F210BAB00F08ABC20798DF82E00E078012814D013
:20022000022809D0032805D052200DF12E0124F0F5FA0FE03C4600E0012452200DF12E0104
:2002400021F086FD88F8004004E052200DF12E0121F07EFD4D210DF12E0300F065BCE17834
:2002600038465EB13279914205D1F2880DEB4003401CC0B21A813668002EF3D18DF830003A
:200280009DF83000012404EB4000C0B2054619F023FE5FEA000806D18DF83070492122463F
:2002A0000CAB00F042BC02469DF8300002F8010B38469DF8301081420ADC652049212A462B
:2002C000434622F073F8404621F0A2FB00F043BC0DEB400108310B7813700988401CC0B21E
:2002E00009125170921CE4E7301CE4788DF8317013D03E4601798C420BD11EB905680B49B8
:200300000D6002E001683160056821F081FB284601E0064600680028ECD121F039FD0DF16D
:200320003103472100F000BCE404012064F20020671B0120280401208A010120E01C10F856
:20034000014B26F035F90146C7480068224650B13E4603799A4202D1C388994205D00646F0
:2003600000680028F5D1012008E006B9BE4E0168316021F04DFB21F00BFD38468DF83200B2
:200380000DF13203CDE739460DF12200062207911BF0F2FCE01C07A924F05AFF8DF822005E
:2003A000079870B101888DF8231046888DF8256009128DF8241031128DF8261000798DF894
:2003C0002700432106220DF12203AEE364788DF8377048B1012805D002281CBF01208DF80C
:2003E000370004D1022000E004200DF011FD24F01F04202C40F0AF830DF13703EEE220466D
:2004000090F80180C01C26F0D3F859460A7849468E6856B13C4633799A4202D1F388984237
:2004200005D034463668002EF5D101200EE03CB9346804B93C468C6004E0C046DC01012028
:2004400030682060304621F0E3FA384628F01F088DF83800B8F1200F40F07D830EABBDE246
:200460005001012020464478C01C26F0A1F80146584600781FF010FF24F01F048DF83900ED
:20048000202C40F068830DF13903A7E2E41C204626F08EF8A41CADF8080014F8010B042186
:2004A0008DF81000204624F0D1FF0646201D10F8019B10F8018B26F07BF8044631464A46C2
:2004C000434602A800941DF0FFF98DF83A009DF810000F280FD1022053468DF810001888E5
:2004E00031464A46ADF80800434602A800941DF0EBF98DF83A000DF13A036FE22078264641
:20050000042806F1030614BF16F8010B02208DF81000304626F04CF8D54CADF80800B01CA1
:2005200010F8018B012626700278414602A81EF015FE8DF83B002770404625F093FB0DF120
:200540003B0332464BE20220E41C8DF81000204626F02EF84E46A11CADF808000C7A706803
:2005600026F099F97168C4F3400804F00104B8F1010F0F7204D17268107A40F0400010729D
:20058000012C03D1087A40F080000872484602A9342209231DF04EFD0DF13D038DF83D009B
:2005A000C1E20226E41C8DF81060204626F000F8A41CADF80800204625F0FAFFA278804646
:2005C00002A84146144625F0DFF88DF845009DF810000F280CD1504600888DF81060414687
:2005E0002246ADF8080002A825F0CEF88DF845000DF14503F2E10226E41C8DF810602046FB
:2006000025F0D6FFA41CADF8080014F8010B8DF84700204625F0CCFFA41C14F8019B80462B
:2006200002A90DF14700424600944B46019720F0DFFF8DF846009DF810000F2811D1504678
:2006400000888DF810603E4602A94246ADF808004B4600940DF14700019620F0C9FF8DF85B
:2006600046000DF14603B9E164F20020A946E51CA878B846FE280BD1E878FF2808D12078D5
:20068000082805DB284625F093FF294624F08DF9284608A925F058F9041C0ED1182019F067
:2006A0001BFC5FEA000807D0BDF8200039461822434625F03DFD00B1C824192019F00CFCAE
:2006C000061C20D05CB9701C2946082225F02EFA06F109004146102225F028FA04E0701C31
:2006E000FF2118221BF048FB3470652049461922334621F05BFE3046394619221BF03CFB0A
:20070000304621F085F9B8F1000F00F024824046394618221BF030FBD5E502271BE21BF026
:200720005BFF18E2E01C25F043FFE51C0246A81C10F8011B1CF042FA4E210DF12D038DF877
:200740002D00F1E18DF82F7025F0A4FA0DF12F034C218DF82F00E7E120461BF003FFFAE15C
:2007600020461EF05AF8F6E1E01C25F021FF6179A2791DF022FA46210DF133038DF833003A
:20078000D2E1E01C25F014FF6179A27911F006FE45210DAB8DF83400C6E1E01C11F020FBF2
:2007A00044210DF135038DF83500BDE1E01C25F0FFFEE51CA91C0B4608310A4619461FF02A
:2007C00029F842210DF136038DF83600ACE10220E41C8DF81000204625F0EAFE4E46A11CAB
:2007E000ADF808000C7A706826F055F8706802A935220923047248461DF01CFC0FAB8DF81D
:200800003C00EBE00220E41C8DF81000204625F0CFFEADF80800A0780DF13F0602A93322CA
:200820008DF83F00012300964846019720F0E0FE0DF13E038DF83E00D0E00220E41C8DF8CD
:200840001000204625F0B4FEADF80800A0780DF1410602A932228DF8410001230096484644
:20086000019720F0C5FE10AB8DF840005BE1C0468C0A01200220E41C8DF81000204625F062
:2008800097FEADF80800A0780DF1430602A931228DF84300012300964846019720F0A8FE5B
:2008A0000DF142038DF842003DE10220E41C8DF81000204625F07CFEA41CADF808000421D2
:2008C000204624F0C3FD4E46221D014612F8018B7068137825F01EF902A900F8018B30221E
:2008E0000370484606231DF0A5FB11AB8DF8440019E10126E41C8DF84860601C25F058FE67
:20090000814604F10B0025F053FE804694F800A0637BA07B22F004FC0093E01C49465246F7
:20092000434613F03FFC12AB8D498DF84800042025F068FE05E60126E41C04218DF849608C
:20094000204624F083FD21791EF05AF885498DF84900022025F056FE83490DF14903032043
:20096000E6E7204619F072FDF5E0E41C204625F01FFEA11C0B4608310A4619461EF04AFF12
:200980000DF14A038DF84A00CDE020461AF015F9E1E020461AF0CEF8DDE020460FF078FE83
:2009A000D9E0E01C25F004FE4E464FF6FD740F22ADF8084071688DF8102002230412152203
:2009C00001F8010B48460C7002A9F7701DF032FB39468DF84B000DF14B03F170012229462E
:2009E000A3E0204618F0AAFDB5E0E41C204625F0DFFDA11C0A7A3B4621F0F6FF13AB8DF868
:200A00004C0090E00220E41C8DF81000204625F0CFFDADF80800A01C25F0CAFD014611225D
:200A200002A824F0B1FE0DF14D038DF84D007AE00220E41C8DF81000204625F0B9FDADF842
:200A40000800A01C25F0B4FD0146102202A824F09BFE0DF14E038DF84E0064E020460FF071
:200A600077F978E00220E41C8DF81000204625F09FFDADF80800A01C25F09AFD014605225D
:200A800002A824F081FE0DF14F038DF84F004AE00220E41C8DF81000204625F089FDA41C53
:200AA000ADF80800204625F083FD4E467268A17810707268031253707068032304228170C0
:200AC00002A948461DF0B6FA14AB8DF850002AE00220E41C8DF81000204625F069FDADF845
:200AE0000800A01C25F064FD0146032202A824F04BFE0DF151038DF8510014E00226E41C05
:200B00008DF81060204625F053FDADF80800A01C25F04EFD0146324602A824F035FE0DF19E
:200B200052038DF8520029460122652021F03EFC11E0E41C204625F03BFDA41C14F8011B9B
:200B4000227822F021FB0DF153038DF85300EAE7204617F0D1F9384615B0BDE8F08FC0462C
:200B600009290200694A0200695101002DE9F04F04464FF6FE70ADF15C0DADF85400A44893
:200B800040784FF00008022812D1A148007878B92089002807BF30204146102001210EF0F9
:200BA000D1FE8DF8568052200DF1560121F0D0F86068217A08AA12F0F1F9002800F0D984F5
:200BC0009DF822000228B4BF012747469DF824000228A8BF4746BDF82A104FF6FE7BABF1EC
:200BE000060B8B450ED04FF6FE70401F884209D04FF6FE70001F884204D04FF6FE70C01E80
:200C0000884200D1474625F09DFC9DF82310884240F0AF84002F00F0AC847D484078022813
:200C200004D19DF85100002840F0A384208D9DF82660678EADF84C00ADF82E70D6B1616839
:200C40009DF821209DF83C30012024F0C3FF002840F08F84C448001D007801280AD1208D09
:200C600025F0B9FD30B1417901F0EF01417141F0080141719DF82570DFF8E492DFF8E4A2BB
:200C80004646002F49D19DF83D00474658BBBDF82A00034620F05CFE4546022808BF0125D9
:200CA000002D9DF8225018BF012749460988994208BF47F0020727B1002D14BF4021202185
:200CC0000F43184620F044FE012808BF47F00107002D3BD01298007825F06EFA012818BF0C
:200CE00027F0010732E09DF8411041B1FF2906D09DF84000119A22F0F9F950B126E05246CA
:200D0000BDF82A10508F884205D092F84A0004281CD101261AE0222718E0BDF82A10FF2009
:200D200023F0B4F9002804BF3D1C082708D09DF8250047F001052C2740F001008DF8250083
:200D400005F00305012D08BF47F0110730489DF82650407830F0010005D107F002010E43D5
:200D600008BF47F08007DFF8DCC295B961460E787EB107F0220122290BD007F042014229EA
:200D800040F0F78312990978062918BF072940F0F083F9094FEAA7155AD3BDF82A201299D6
:200DA00048B96046C01C0078800804D30878401E0A282FD909E00878C01E01282AD9001F2F
:200DC00028D0C01E26D0801E24D0B8F1000F21D148460088904240F0CC830D780520BDF845
:200DE0002C408DF8110004A824F0F2F8002800F0C0830269032313271370511C0F704C70F6
:200E000022128A70CD70448009F020FAB1E3C046E404012068081BD30878032802D1487851
:200E20000D2815D09DF8280038B1BDF82C000E990EF07EFB012800F098839DF8270038B11A
:200E4000BDF82A000D990EF073FB012800F08A8309F10E00B4F844100088884209D1CDF882
:200E60000080208DB4F8421094F8462043460AF0BDFF9DF82600002843D0208DB4F8421075
:200E800020F060FC061C25D19DF8510088B99AF89000012835D112980078062801D16808C4
:200EA0002FD2BDF82E100BF10700884240F0C5805FE3042024F006F8011C00F05A83642016
:200EC000087001274F70208D48809AF800001FF057FC4EE39DF821106068F3780A18527B31
:200EE0009A4203D0F27040467060606840180421401C24F0ABFA7168814200F23A83401C8A
:200F00007060B348DFF8C4B24078022800F08F8230F0010040F02D839AF832008008C0F0D9
:200F200028839DF8510030B3BDF82C0024F0A9FDE0B9A5495C46BDF82C000B6862699901C0
:200F4000A1EB83019047012840F01383A169BDF82C008847E168BDF82C00884709E3C04616
:200F60008A01012050010120500101206168487800F0DF0048709DF8320038B16168887957
:200F8000401E8871C0B28DF8320008B907F07F07380924D39DF82500F9084FF4805814D29F
:200FA00079091AD3811011F0070F01F0070604D0072E1CBF761EF6B20EB907F07F0700F0C8
:200FC000E30040EA8600C0B205E020F01C00C11021F0030108438DF82500616808729AF84B
:200FE0004A00042800F0E981092800F0E68117F0610F40F0EF809DF82200012811D1129817
:201000000078052800F0D88003280AD1BDF82A0024F037FD28B1218D08A815AA002301F0AC
:20102000CFFB9DF8320078B99DF82200012804D112980078032800F09C8208A821461EF0B9
:2010400099FC96E27F01012024F05AFA002840F090829DF83D0000286DD19DF82400BDF86A
:201060002A10FD100028ADF854102ED13A0930D29DF82220012A28D0084600211BF07CFCC8
:20108000002620B14079012816D0022814D0BDF85400B4F8441020F055FB28B1807823F036
:2010A00044FF08B1082807DBBDF82C0024F0E9FC18B104208DF824000126BDF82A10002E6E
:2010C00008BF022272D09DF824006A0838BF002300D340230DF13D021BF088FC30B16168F2
:2010E000087848F0200800F03F0008709DF83D0040B1BDF82A1010A820F00AFC48F0400869
:20110000ADF854009DF82200012806D0BDF82A00BDF82C10002217F019FF68082CBF402252
:201120000022BDF82C10BDF82A0015F093F808B148F0200833E09DF840009DF84110119A9B
:2011400021F0D4FF00282ED09DF8410038B9BDF82A00ADF8540025F03EFB00BB1DE0119936
:201160009DF8286001EB400030F8020C002EADF854000CBF082110219DF8270008B10831F6
:20118000C9B29DF82500002200B1012266688918491CCAB2905D401E905548F0400823F011
:2011A000BFFC8146A8E0BDF82A100B22BDF82C0000231BF027F9DCE1218D08A815AA0023DD
:2011C00001F0FEFAD5E1C04650800200E4020120E404012078084FF0000967D39DF83300BE
:2011E000B4F828B0C04D494616901E20EA79169B934206D1BDF82C302A88934201D1AE789B
:201200002EB9401E05F1080501F10101EED11E2921D0AE79E6B1BAF84810584623F012F818
:2012200008B1761EAE71BE4833210279FF2A02D00288934504D0491E00F12400F5D102E018
:20124000A879401EA871A8794828A4BF4E46AE7127F060072AE023F063FC81469DF83200C7
:2012600028B9BDF82C00218D814202D11EE0BDF82C00BAF83A10884202D19AF80600A8B1FF
:20128000218D08A84A4610F0B1FA58B1380932BFBDF82A004FF6FE70401C48F00408ADF8A3
:2012A000540003E027F020074FF00009B8094FEAA71510D394F8460094F8476094F94830CE
:2012C0008DF81000E26B8DF8116004A98DF8123008A804F035FF68080ED3218D08A815AA7C
:2012E0004B4601F06DFA5FEA000905D012980078012808BF48F01008BDF854104FF6FE70B0
:20130000884208BF4FF000099C49C97E012927D1628E411C914223D0228D914220D0BDF86C
:201320002A10401F88421BDDBDF82C00904217D025F051FAA0B10179012918BF02290FD181
:2013400001218DF810104088ADF81C0004A81EF03BFE28B105A81EF081F908B120F0B8FCBF
:2013600037F07F0000F00581B9F1000F00F00181208918F0B1FD071C00F0FB8061682289C5
:2013800024F0D4FB002605969DF822008DF81000CDF80090CDF8048004AD0296BDF854105D
:2013A0000395228D237A384614F072FC002800F0E080384620F02CFBDBE04946BDF82A0003
:2013C000098881420AD020F0C3FA022806D09DF8250000F00300012840F0CB809DF822000A
:2013E00098B112980178042904D19DF83C10022900F090800078072804D19DF83C100429E9
:2014000000F0848003287CD0B3E094F846008DF8100094F847708DF8117094F948608DF864
:201420001260E26B08A804A904F08AFEA1E09AF84A00042818BF092840F09B80B80971D234
:2014400012986908C0F095800178042903D19DF83C1002295ED00178072903D19DF83C208A
:20146000042A53D003294CD00C2940F08280401C424A10F8017B0578164601215120D21CA6
:20148000F57025F019F93D4B3B49012658465C79067057B9002C14BF4EF660204FF47A70A4
:2014A00051F8241000FB01F405E00846203000684EF6602444430320B4FBF0F441464FF405
:2014C00080400EF03FFA9AF8000002211DF0F8FA68080BD2A8084CD39AF800000221224628
:2014E00025F0B2F945E0C046440200204FF48040214616F057FC4FF4804031460EF022FA44
:2015000037E008A8002112F0EBF932E008A81AF07FFA2EE0002008A90BF00CFD29E0C046C6
:201520002C10002094F8460094F847709DF832508DF8100094F948608DF81170012D8DF8A0
:2015400012607FF46EAF208DBDF82C1088427FF468AFBDF82A0020F0FBF9022808BF8DF83E
:2015600032805EE7BDF82A0001E0BDF82C001EF05BFF17B0BDE8F08F2C800200E4040120C9
:20158000B94A2DE9F04F0846ADF14C0D11780F90000C80F067849246B44D0F9A6878920B20
:2015A00080F03184022813D10F9A520810D39AF850000F2807D19AF84A0020B1012802D079
:2015C000002020F06BFF0F9880F0010000F06ABC0F9A920980F04C83DFF89892DFF89882CE
:2015E00030F0010740F0BC820F9A520980F03D820F99C90980F0C4819D490F9F0A78390A9A
:2016000080F0AD813946490A43D23946090B2AD20F999AF80370490B1AD20F99C90BC0F09D
:201620009F824C46A06A70B1297D01290BD18047E06A00B180479AF800004FF480414FF4BE
:201640007A7225F001F90F9880F4804000F02ABC27B100208AF803001FF020FF0F9880F418
:20166000805000F01FBC1FF019FF687C01280BD1A97C49B19AF800004FF47A7212FB01F2DF
:201680004FF4006125F0E0F8384680F4006000F009BC24F05DFF4FF6FE7B834500F05B81F0
:2016A0009AF832008008C0F0568100263446304622F0D8FF071C19D03879012816D0022862
:2016C00014D0F879411CF9719AF88B1081420DDABC727C72388822F0DFF8388801A923F0D5
:2016E00064F901A81DF0BAFF20F0F2FA761C332EDDDBA8F11C0614275D46119436F81C0FE0
:2017000085420CD0307B9AF88B40411C8442317305DA1198B0747074308822F0BDF87F1EAB
:20172000ECD14C46032104F13C0010F8047F0FB17F1E0770491EF8D1B04C332605F1010921
:2017400034F8240F81451FD001208DF804006788ADF8107001A81EF037FCA8B1A8F11C05BA
:20176000142735F81C0F2188814208D0BDF80610814204D002A8A91C24F0BCF810B12846CA
:2017800024F057F97F1EECD1761ED9D1119D2C46284622F067FF48B1077937F0040705D1C6
:2017A000807A23F0C2FB08B1641CE4B26D1C332DEEDB23F0E7FA119E5FEA00080ED0354691
:2017C000284622F055FD28B1807C23F0AEFB08B1761CF6B26D1CEDB2A845F1DCA019C7B29F
:2017E000002F4BD0B80018F077FB1090002808BF119F45D0BA00FF211AF0BEFA119E354653
:20180000B44218DD284622F02DFF031C10D0187930F004000CD1987A23F087FB011C07D005
:20182000009718885A7A109B19F00AFA761CF6B26D1C332DE4DBB8F1000F21D0119C204647
:2018400022F016FD061C0AD0B07C23F06EFB011C05D00097109B3088727C19F0F1F9641C72
:20186000E4B2A045EBDC0BE050010120E4040120FE090120E40201209C0400201198109088
:201880009AF83000002808BF4FF0620805D024F095F9C0F154005FFA80F80320B8F1600F66
:2018A00098FBF0FAA8BF4FF01F0ADDF84090ABF1020BB8F1000F0EBF119D2025DDF844807D
:2018C000BA45A6BF3C1C45F040055446032014FB00F0801C8DF8050001A823F079FB4E462C
:2018E000031C26D01869082104F01F02017045EA02014170801CA4B12246C01E361F16F826
:20190000041F00F8031F318809124170B17801F0070CF178521E01F0070141EA0C118170CD
:20192000EDD1A3F802B001209876184608F08EFC00E00120E90906D2641EE4B20CB109EBF9
:2019400084093F1BFFB205F040052843B1D0109808B120F05DF80F9880F48070A2E2104321
:2019600008D1B3480179012902D10021C170017121F0C2F91EF06CFE384680F0800091E233
:20198000B44C1E2600214FF006084FF00409A778002F43D07F1EFBB26079A37023F072FF2E
:2019A000071C3AD06BB9787B022808BF87F80D8033D087F80D803868407BF0211FF0CCFB95
:2019C0002BE0A3791BB9787B032812D025E023791BB3E078401EC3B2E370F3B99AF82500BC
:2019E000E0702079401EC3B22371787B032814D133B92046394620F08BF80EE0081000200A
:201A000087F80D9024F08FFE00F00F00401C38819AF8000020211DF0E9FA0121761E04F187
:201A20000804B4D19AF80000012910D040211DF047F895F82A00012813D1002085F82A0041
:201A400095F82B0016F082FE20F042F909E040211FF0BEFF28B99AF800004021642224F079
:201A6000F3FE0F9880F040001CE2084610211FF0AFFF30B99AF8000010214FF47A7224F0F5
:201A8000E3FEBB48DFF8EC82417808F2AC54491ECFB217BB012141700020052123F058FC30
:201AA000071C1BD006253846052123F051FC0646388978B1401E80B2388158B97889C00890
:201AC00002D3387B21F0D0FE7D733868407BF0211FF042FB371CE6D100E0477064274FF686
:201AE000FE7600252079A0B1FF2812D0401E2071C0B270B96079032805D160882188022241
:201B00001CF02EFD6079012803D0268066806571A5717F1E04F10804E4D108F15A04082768
:201B2000207A401E2072C0B230B9C048214621F0EBFF90B9668025707F1E04F10A04EFD132
:201B4000BB4AC82112F8080F08B1401E1070491EF8D10F9880F01000A4E11FF04BF8E4E7E6
:201B60004C460F992778890864D20F992289890A40D20F99090906D301200F9F8AF80600E3
:201B800087F008008EE10F99C90A26D20F98400C38BF0020C0F08681C44C332501262079FB
:201BA00080B105280EDA607900090BD28DF804606088ADF8100001A81EF006FA10B102A878
:201BC0001DF04CFD6D1E04F12404E8D100200F9F8AF8040087F4803064E1022801D11AF084
:201BE000A9FABAF84800012119F0C0FA0F9880F4806057E1BAF8485004F108015020AAF8D6
:201C0000482020F0A5F82689142744466089854205D0864204D0204623F00BFF00E06681D0
:201C20007F1E04F11C04F1D10F9880F4007039E1CCE8002087B9BAF83E10012021F08AFAC1
:201C40006878022810D19AF8000001211CF038FF0AE0C0464402002001A824F0C0FD24F0BE
:201C600065FC01A91DF00AF90F9880F0020019E1084620211FF0ACFE28B9DAF81000002803
:201C800008BF012616D024F0A3FF044624F03CFC4FF47A716043B0FBF1F1DAF810000028BC
:201CA00008BF002004D088428CBF4FF0FF30081A46086AD00020042123F04AFB071C64D048
:201CC000FF254FF0FF3B06244FF001093846042123F03EFB10903889864204D8801B83B230
:201CE0003B8113B14EE000203881BB7B012B02D17889C00840D3002B36D08DF804508DF8BD
:201D000005508DF806B03968086AC97F02AA11F045F94FF00008012808BFC8465FEA080057
:201D20001DD0788A40F08000ADF83600B87B8DF838007889000908D3BDF8360040F4807045
:201D4000ADF83600387B8DF83A007B6913B1187BADF8180001A9002202A804F0F1F97C73FB
:201D6000387B19F0D5FD0DE087F80D900AE0C046640F0120200100207C733868407BB721E5
:201D80001FF0EAF9109F002FA0D10BF0B3FE9AF800300020012123F0DBFA18B11846202102
:201DA0001DF024F90020042123F0D2FAB3B278B152460789147823F0CBFAF8B9BB42AEBFA0
:201DC0000027FF1ABFB2204627B920211DF00EF900200DE07A00202124F039FD24F0F8FE9B
:201DE000044624F091FB4FF47A716043B0FBF1F0CAF810000F9880F0200053E00289BA42D9
:201E0000D8BF171CD7E724F05EFD294C0546201D00680746C0B157F80C1C9AF8000049B99D
:201E20004FF400511CF038FB08E0C046BD120200E40900204FF400511DF0D8F820463946AD
:201E40000022001D21F08CFB284624F0BDFE2FB13846FEF78BFE384623F03AF90F9880F4B3
:201E600000501FE008461DF093F8071C17D0114920310A78FF2A0FD03C780B4600209442F3
:201E800007D0401CC0B2C200D1189A5CFF2AF6D102E0496838468847384623F019F90F98E2
:201EA00080F4004013B0BDE8F08FC0462C100020E40A01202C7C02002DE9F04FC14DC24CFB
:201EC000DFF808A3C44E88465FEA1840ADF11C0D80F09E826F78DFF8F892DFF8F8B25FEA96
:201EE000580080F01B82384630F0010040F091805FEA980058D25FEA981044D25FEAD8303A
:201F0000C0F087800120022122F098FBC5B20DB3E80017F0E1FF071C1DD0C04C82464FF0F8
:201F2000010933262079012818BF02280DD18DF804906088ADF8100001A81EF045F820B122
:201F400002A9504624F0A7FC8246761E04F12404E8D100E0002797B175B10F204FF6FC76FC
:201F60008DF80C001F24ADF8046001A92A463B46C248009415F004FC38461FF049FD88F4F7
:201F8000804000F00DBC207A38B92078062802D1072023F04FFE23F02BF9E07910211DF04F
:201FA00025F888F02000FBE3207AE8B92178E079082917D123F0B4FA092023F03BFEBF480B
:201FC0000078052806D0072809D10720012105F0D1FA04E0012022F035FC1BF08FFF23F080
:201FE00007F913E010210FE024F0A6FAEF2803DB002022F027FC09E024F09EFA1030C0B289
:2020000024F0ACFAE07901211CF0F0FF88F00200C6E3CE48CE4B0668B3F900005FEA581172
:2020200080F04E815FEA181028BF88F0080080F0B7835FEA582080F0D1805FEAD80080F0CC
:20204000B78037F001001CD15FEAD81019D32069A0B116F043F92069076820691FF0D8FC97
:2020600027615FB1FA8802E0F888801AF8803F68002FF9D1E079402124F0E9FB88F04000C8
:202080008EE35FEA182064D25FEA98205CD2C84C5FEA18302CD25FEAD82027D3142017F0D0
:2020A0001BFF071C1FD0002524342E46207A012812D10097042029463246142320F074FB05
:2020C00050B9206838606068294614223B467860042021F0ABF926726D1C0C34C82DE5DB22
:2020E00038461FF095FC88F4806059E3002057E3182017F0F1FE071C23D000252E46207A59
:20210000012812D10097062029463246182320F04BFB50B9206838616068294618223B4662
:202120007861062021F082F926726D1C0C34032DE5DB38463146182219F01EFE38461FF0E2
:2021400067FC88F400602BE318F0CEFF88F4007026E31BF0D3FE207805281DD1E07904215B
:202160001CF0AEFCE07904211CF096F9062023F061FD687830F0010007D15046007800F022
:202180000700022801D024F0C7F81FF0A1FD18F0ABFF1EF059F801E01FF09AFD012021F0F3
:2021A00023FC0320012105F0E5F988F08000F7E2FF20032120F0D8FD24F0D6F9C2490120E0
:2021C0000860FEE7E4040120C4030120501A0120500101203C0501204C1A01204A4692F8C1
:2021E0004A00082818BF042845D124322120742124F062FABF4E6878716832880024B14615
:20220000A2423DDC30F001002DD1044CFF25002694F82100802822D102E0C0462C1000207C
:202220006788ADF8067023798DF80830A1798DF80A1062798DF809202088ADF80400E77948
:2022400084F82150237D8DF80B70A7698DF80C3031461022032001AB049721F0E7F8761C8B
:202260002434332ED4DBBB48006800B180470020022120F079FD88F4807091E2280401201E
:20228000A30003EBC403CF5C37F07F0C13D017F07F07CF540B4405D101A8FF210C2219F051
:2022A0006BFD01AB012021460C2221F0BFF86878D9F804103288641CA4B2A1E76F06012019
:2022C000B0F1FF3F37465C4602D1B8480078A0805FB17968087818B1486800781AF056FDD6
:2022E0003F68002FF5D1B4F90400B0F1FF3F02D0C0B21AF04BFD24F02BF9AD49088023F053
:20230000E5FB687C012806D14C4620784FF40061642224F09CFA88F0100041E2012023F01C
:2023200089FC3046677801793546122201F0070A11F0070F16D1022F0CD0012F12D1082052
:2023400023F078FC23F0E8FF0BE0C046C00A012040050120082023F06DFC0020014612F0AD
:2023600005F90246BAF1010F18BFBAF1020F45D107B3032F1ED0012F40D1BAF1010F3DD1CF
:202380000A2023F057FC4C4620784FF480611CF097FB502005A922F041FABDF81400A4F8F1
:2023A0004800BDF81400002118F0E0FE2DE0C046E0E8002023F070FF002818BF032F16D170
:2023C000022023F037FCB749E06809781CF018FB0246A879000911D28AB959464878401C5A
:2023E000C0B20428487004BFBB48E06006E024F09AF90146012012F0B9F802462AB1E0795D
:2024000001214FF47A7224F022FA88F00100C7E1DFF8CCB2BBE10646B04A33782778116820
:2024200068781A46521E00F08D81521E00F09480183A00F0A681B93A00F09F812A3A00F0BA
:2024400083801B1F77D05B1E6ED05B1E54D05B1E3CD05B1E2CD05B1E40F0968120BB707F20
:20246000DBF8109000BBB9F1000F06F1050A1BD0BAF1000F18D04F46B81C5146082222F0A6
:2024800017FE18B9FF68002FF6D104E038461DF047FDDBF81090B9F1000F05D19BF80000B1
:2024A0004FF400611CF00CFB304622F0C1FE6BE1012818BF022840F06781307916F046F9A2
:2024C0001FF006FC60E1C0467C052043002840F05B813079012800F05781022806D00428C6
:2024E00040F05281304618F08DF94DE1304612F08BFF49E1DC0A0120012840F0458170885D
:20250000002840F04181301D01A921F0A5F8012840F03A8124F01CF8ADF80C00361D029624
:2025200001A816F08DFB2FE1002840F02D81304611F0C6FC28E1012818BF022840F024810D
:20254000304608F025FD1FE1002900F01D813046884719E13C090120012818BF022840F035
:2025600013815846C0795E46072818BF082805D1237A1BB9012104F0FDFF2778032F00F0FC
:2025800093800A2F16D0042F1AD00D2F18D00E2F16D00C2F14D0002F00F0F6801DF054FE92
:2025A000E07910211CF022FDEEE0C046671B0120E00301208048007800F00700012873D048
:2025C000277A6078002F35D10020E0720746F7701EF0ECFFF8B120780D281CD00E281AD0AC
:2025E000062023F027FB70480078000904D34FF4004001210DF0A6F9687830F0010007D156
:202600006E48007900F00700022801D023F084FE1DF01AFEB8E06878022803D1082001211F
:202620000DF090F9052023F005FB42F2107022F0CFFDA9E0E17A01280BD003281ED1687868
:2026400002281BD1594900260E7001270320677113E0491CC8B20428E07204DB54480078B8
:20266000012809D00AE0534800884FF6FF7181421CBF0426A672E8D10020607021F05CFAA6
:2026800020F04AFC48480078000902D3287D01287AD16078032877D1082001210DF052F908
:2026A00072E0C04699060120207A002848D1E07910211CF09BFC1EF079FF98B96878022819
:2026C00003D1082001210DF03DF9052023F0B2FA01201FF09DFB57E000F8FF072807012078
:2026E000680601206F78207837F001070AD10A2808D13149097801F00701022902D02B4A51
:202700000821117003280BD11DF09EFDF079022806D1012021F068F90220012104F02AFF02
:20272000062023F087FA687830F001002CD12248007800F00700022826D023F0EDFD23E0E8
:202740000020C6E7022F1FD1012818BF02281BD123F070FF28B113F06FFBA8B1687802284A
:2027600008D023F09DFF00280CBF002001201FF067FF09E019F0DEFC06E0304605F0A0F874
:2027800002E0304606F080FC069822F0A1FCE0791CF0FEFB002806907FF43DAE88F40040EC
:2027A00007B0BDE8F08FC046521A01209A010120E006012098010120501A01204C1A01201C
:2027C0002DE9F04F064693460020ADF13C0DABF80000B06A099303460078884623F0ECFC95
:2027E00048B1708904461FF0B3F8022804BFABF80040B36A01D0002009901878C84DDFF8F0
:202800002493401E0A2800F20B84DFE810F02F03B3020C04A0028D0151010904BE0088005D
:2028200066000B00BD4C207D012840F0F9835B1CB06913F8015B1F7823F0FDFF002800F0F7
:20284000F7830379002B00F0F383032B80F2F0830E2D1CDCDFB9D04907752DB901EB850126
:202860000A6BC261096B0AE001EB85010B6B9A01A2EB8302C2610A6B9101A1EB82018161B2
:20288000012180F820101FF023FA002500E001250320B689E4788DF8190006A822F098FB68
:2028A000071C00F0C58338690C2100F8011B00F8015B04700124BC7723F008F9786204A920
:2028C000304622F072F810B17C7704A838627E80BC76384607F0BAFCAAE35C1C207820F004
:2028E0001F0700F01F00012840F09A83641C04A8214623F0D0FF284604A95D3022F0FAFF05
:20290000002800F08D83002F40F08A830834A2786178207801EB022120F07EF988E3688F64
:202920007189884240F07C835C1C14F8016B04A8214623F0B0FF284604A95D3022F0DAFF4C
:2029400006F01F0726F01F06002800F07183002E40F06E83780017F0BFFA011C00F0688395
:2029600067B184460834384663782278401E04F1020402EB03222CF8022BF5D100910EF035
:202980002CFC08461FF044F852E35C789A1C34F07F0704F01F0E40F04B83377F03201EFBFC
:2029A00000F0801CC1B2B94240F04283002714F01F0F04BF4FF6FE7C614618D0D9789B785A
:2029C00070464D4603EB012C5378117812F802EF01EB03213EF0770340F02A832B888B422F
:2029E00008BF0EF00707521C401EEDD1BFB960464FF6FE72824212D004F06002602A0ED043
:202A00004D462A88A30907D2E30902D2904203DD0EE3904203DD0BE39142C0F20983B0899F
:202A200023F0D9FE002836D1B0894FF6FF7121F009FC041C14D120F0DFFC041C00F0F882FF
:202A400000211C2219F098F9B0894D460E35208028886081AA23A3740622227401216174A4
:202A6000207C0C2805DB0620072F2074BCBF7F1CFFB2677400202073A01C22F0D8FC002897
:202A800040F0D682307A002800F0D282B169A01C23F001FFCCE20021C171017A0C2905DB1E
:202AA0000621072F0172BCBF7F1CFFB24772BFE2484671890088884240F0B282307F02280E
:202AC00040F0AE82AA4CA01D00884FF6FE71814240F0AE82162022F0F5F9071C00F0A88211
:202AE00001213970B07900280CBF081C02207870B06A4078B872000902D2B0891FF036FE6C
:202B0000B169B81C23F0C7FE0020F874287839461DF036FEB089E0808AE2C046E4040120EF
:202B2000500101208A01012070891EF011FF002840F076825F78B94987B10C2F03F10203CB
:202B400080F276828C463D465A7818786D1E03F1020300EB02202CF8020BF5D14846758940
:202B60000488DFF8D892AC4200F0B280B37C002B00F05E823B1C0A974FF0000811D0A74A3D
:202B800038464146921E32F8023F9C4206D0401E01F10101F7D104E0FC7F02000A914FF00C
:202BA00001082846002119F0E7FE00280B907ED0407901287BD10B98807910F0180F76D047
:202BC0000B984188384622F06BFE10B9B8F1010F6DD109F55F794FF6FE704FF000080C975D
:202BE000B6F80CB0CDF820904FF0010A0D90C14611E0B8F1010F08BF4FF0010908D023F063
:202C000092FDC0B290FBF8F101FB08F1A0EB01094FF00008C246089D14271C3D35F81C4F95
:202C20004FF6FE70A04213D0A34511D00C98214622F036FE60B96B7C53B1072B08DA08F1F1
:202C40000100BAF1000F5FFA80F801D1C14521DD7F1EE3D1B34D332735F8244F0D98A04240
:202C60001AD0A34518D00C98214622F019FE98B96B7A8BB1072B0FDA287901280CD0022809
:202C80000AD008F10100BAF1000F5FFA80F803D1C14501DC0D9407E07F1EDDD1B8F1000F93
:202CA00002D0B9F1000FA4D00D980B994880B37C5A4C581EB074F77C00970A9D01950294B8
:202CC00001220392B189B269708915F0FDFBAFE1B4890C2F80F2AC818846ADF81040BD4882
:202CE0008DF812700168CDF8148009B104A8884720461CF0D7F9C82803D14FF6FE701CF011
:202D0000D1F9C82880F2948109EBC00000F6CC05686808B11EF07CFE2FB1780017F0DCF8B3
:202D2000686010B984E1002068606C80C2486F70007828706878002800F07A8168680028E5
:202D400000F076817A00414622F0F0FE70E1307F022840F06581099828B94D46718928888C
:202D6000884240F06581099831460AF0E3F85EE1E4020120B5F8481040461EF0E3FCA846DA
:202D8000074608202FB17D781DB90621397007257D70B16A0A79CC788B794D7891F802A054
:202DA000CF7904EB02244A7902EB03296A0928BF1020AA0924BF0830C0B235F0700340F048
:202DC0003781327F904240F0338105F07005680938BF002006D306A8083123F05CFD25F0A1
:202DE00010050820A90907D3B16A091804A8083123F051FD25F020052046514621F080F8C8
:202E000008280DDA8D4B410001EBC001C9188879B84240F30D818F71002002E044010020D1
:202E20000420B8F83A10A14219D048B9B189484601222B460EF040FC28B1F9E0200100201E
:202E4000042840F0F58006A804AE009049463A46534601962046029512F0A0F8E8E0B189D9
:202E6000484601222B460EF027FCE1E0B5F8481040461EF067FC4FF00609041C03D0607839
:202E8000002800F0CD80B06A817847780891C378017900F1050A03EB0120099040461DF072
:202EA000BBFC9AF8001009185FFA81FAB80928BF4FF00E0937F0780040F0B28007F01800B6
:202EC000182800F0AD80307F814540F0A9804FF00009CDF800900899B0895246434619F026
:202EE000BFFD032800F09C80002807F078074DD117F0180F18D195F8310028B1B0894146B5
:202F000001223B460EF0D8FB09984FF6FE714A463B460EF0D1FB002838D14FF6FF70ABF884
:202F2000000039E00810002047F00107780928BF47F00207B089394619F01EFD90B1817942
:202F400011F0180F0ED0417901290BD154B14088B5F848101EF0F6FB20B1437813B16078B2
:202F600098425DDCB089414601223B460EF0A4FB60B94FF6FF70347AABF80000002C0CBF28
:202F80004946B169B089524622F0F0FBBBF800104FF6FF70884243D1012000900899B089DA
:202FA0005246434619F05CFD099839461DF0B4FF698F81422ED1099823F00DFC60B10079AD
:202FC000012818BF022807D1099804A921F0EDFC08E0C0460404012022F078FD014604A816
:202FE00023F059FC307A012803D1B16906A823F052FC06A8009004AF0197B06A407840F00E
:20300000300002900999089BB0894A4611F0C6FF48460CE0B06A80F805A021F081FD06E0F4
:203020004FF00009F4E70999304610F059FC099009980FB0BDE8F08FFE0401207A01002025
:203040002DE9F04FAD4C04F12C000768ADF1540D17B1002087F84500DFF89C82002517F1C5
:2030600048030BD0BF6DA34E73612FB940460068D0F84C05804773695868706023F023FCE5
:203080001390082014F058F91AF0B4F8464610B181A023F095FD1CF091FB684623F002F8F4
:2030A0000427284669468DF8007023F075F9206422F03AFF09A823F0C7F8284609A98DF85B
:2030C000247023F0C9F8A06322F038FF0DA823F0CBF828460DA98DF8347023F0CDF8A16B80
:2030E000E06319B974A023F06BFDE06B10B977A023F066FD206C10B979A023F061FD306814
:20310000D0F8E00380473068D0F8180280473068D0F8F0028047404600682F460726A03083
:2031200001687B5823B11846804740460068A030761E07F10407F3D1D0F8B8028047EB20ED
:2031400023F00CFAE06A2F4670B105A8FF21082218F012FEE06A05A9082221F0A9FF04F197
:203160002C06012818BF3768654A0CCA05A8391C80E80C0021D1082016F0AEFE5FEA000866
:2031800056D0A8F10206032723F0CDFA06F8020F7F1E4FEA20207070F6D13020F82706F82B
:2031A000020F4146082204F1480088F8077022F0BDFC40461EF02CFC04E004F14800082247
:2031C00022F0B4FC0120082105AA23F06FFA04F14806002818BF092826D121F058FC800861
:2031E0001DD205A8FF21082218F0C6FD07AFFF210822384618F0C0FD0120294608223B46A0
:2032000022F096FF80B9384605A9082221F050FF28B930463946082222F088FC04E001207D
:203220000821324623F048FAE22031461EF090FD21F02DFC400834BF2F1C0127314E5520A8
:20324000012106F1320223F031FA18B917B1284620F0CAFB2C4EE22006F1400121F0DEFA6A
:2032600038461BF07DFD05A82946102218F084FD707830F001004ED1DFF8908005A9102285
:20328000404621F015FF002842D105A84146102222F04CFC3FE0C04652616E646F6D5F7330
:2032A0006565644175746F6D617469632829206661696C656400C04641455343434D206F22
:2032C00070656E206661696C656400C0414553454342206F70656E206661696C656400C0AC
:2032E00054524E47206F70656E206661696C656400C046C0D405012014010020D4DB002078
:20330000A482020068060120E40401200C80020005A820F039FB6220102105AA23F0C6F93A
:2033200028B927B16220102105AA23F0C5F905A82946102218F020FD384612F013FD384620
:203340001FF024F9384613F055F87078A8B905A820F01AFB40F20110102105AA23F0A6F983
:2033600030B92FB140F20110102105AA23F0A4F905A82946102218F0FFFC1FB12846012100
:203380001FF0F2FC282016F0A7FD0028606400F04081206B616B221D1AF048FDCA49087031
:2033A00010211BF023FE616C201D0860206B616B04F108021AF03AFDC2490968D1F84C1303
:2033C0008847616C04F108004860206B616B04F10C021AF02BFD0DF045FB616C04F10C0015
:2033E0008860206B616B04F110094A461AF01EFDB64F7870B18EBD70381D0180303006F145
:203400005001119007F1340023F045FADFF8C08296F8230006F148032946FB604FF4B472FD
:20342000387008F5057018F0A7FC04F1340B04F1300A626CDBF80010DAF800003C2308F585
:20344000057C0C324FF6FE7E5B1E2CF806EBF9D1C2F8009004F114021AF0E8FC9F4B9D4981
:203460007B629D4A08709E4B606CBA6004F11802DBF80010BB6204F114030361DAF80000F0
:2034800012921AF0D3FCDFF85C9289F80700022289F824204FF6FE70A9F81C0022F016FBE6
:2034A000914811990560AF4823F0F5F94046FF210E22801C18F060FC8C488E4B83608E4AEE
:2034C000C2608B49416005708C4B03618C4A42618E4939618B4B83618B4AC2618C4B7B6156
:2034E0008C4ABA618E488C4B8C4AFB618E4910618C4FD16009F1300097601EF09BF81EF0D8
:2035000033F8984809272C307F1E40F8045BFBD14F46F87948F201011CF0BEFEF8794FF456
:2035200000411CF0B9FEF87948F221011CF0B4FEF87948F222011CF0AFFEF87920211CF0B7
:20354000ABFEF87921211CF0A7FEF87922211CF0A3FE606C12994161DAF80000DBF800102F
:2035600004F11C021AF062FC704F48F2150138701CF092FE387838211CF08EFE6D4B6E4A6C
:20358000FB606B483A61616C786102234FF6FE72DAF8000087F8283004F11C038B61DBF886
:2035A00000103A8404F120021AF040FC634904F12003634A0870634F606CDBF80010C36172
:2035C000DAF80000176004F124073A461AF02EFC65497378087023B991F833300BB1022116
:2035E000F17148F202011CF057FE606CDBF800100762DAF8000004F128021AF017FC207015
:203600005149087022F08CFF4870616C04F1280048621BF041FF12F085FE139823F0D4FA53
:203620000FF012FA21F042FB26480068D0F8D40090F8430021F04CFB22480068D0F8582486
:2036400029460120904722F041FD40481D4F05707868C068007830B938460068D0F85824B7
:2036600028460146904717F0DDF93A4F3D703848058145818581C581058245828582C582F7
:2036800005832B464583344C858307210360344A43603248257021F071F817F015FB1EF087
:2036A000B1FF1DF00FFA7078022807D13078012804D14FF4004001210CF044F915B0BDE86C
:2036C000F08FC04614010020671B0120E006012020010020800A012031200100F1800100D6
:2036E00089620200C40301204805012020090120C5C70000E540020035D90100D72D020075
:203700008D46020005130200B5460200796901007D440100D94A020099A40000FC09012090
:203720009942010085B40100C13301001C070120B1290200B13F0200CD470200C40A012067
:20374000D00A0120111C020028180020701B0120D8180120691B0120681B0120EC000020CD
:203760004B690200D8030120680601202DE9F04F0446B54DB5480021ADF14C0D001D2E689F
:203780000768A0780C910146102910DC102900F0AC80002900F0AE82491E012940F2FD81BA
:2037A000891E00F05581491E00F0248144E3113966D0491E1ED0491E03D0491E00F042834E
:2037C0003AE3207967798DF81000E0788DF8117021F0E8FF002808BF022005D00C3004A999
:2037E000022222F0A3F90C988DF82000132108AB01223BE3204634460421C61C304621F018
:2038000025FE0C9F0121002C35D0A268904203D02468002CF9D12EE06CB3361D304622F04E
:20382000C7FEB778804657B92868844218BF251C2068286020461EF0EBF80C991BE0B81C75
:2038400016F04AFB051C04BF10210C9F13D00C9828706F7061683A46A81C414422F066F95C
:20386000BE1C642012212B46F2B21EF09FFD28461EF0CEF8FDE23170334612217770F4E2CD
:2038800020460126C41C8DF82160204622F090FE6F68A3780FB3B3B9386800906868183047
:2038A0000190787E0290B87E03903969BA8AFB8A381D08F099F98DF8210068681EF0A8F8B8
:2038C0000C9868600CE03968E41C1A4609180846214622F02BF90C9800E010208DF8210029
:2038E000112132460DF12103C0E22546BD4C89462D1DA07815F8011C002937D0491E10D014
:20390000491E02D0481E67D064E0287822F054FD002869D041680978E170007820710C9801
:2039200054E02D7800285FD1E1200DF1230120F075FF9DF8230085424AD00126A670304663
:2039400022F0ECFB0C9809A98DF8240052201EF0FFF928461CF028FC002839D065702078BB
:203960003146642222F073FFBA202FE000283BD1E1200DF1250120F051FF9B4E06F13C0701
:203980009DF825103878884222D0DDF8308001255220A5700DF126018DF826801EF0D8F990
:2039A00096F83C000A2805DD1B2803DAE12039461EF0CEF98DF8265052200DF126011EF014
:2039C000C7F9404622F0AAFB4046A07002460CE00C9A0AE00220F9E7284622F0E9FD0C9A82
:2039E000A97822F0C3FE00B901228DF822200DF122031FE210218DF82710E1788046DFB170
:203A00007A681278384691420ED03F683FB17A681278914205D038463F68002FF7D1022022
:203A20000BE03968016002E0B1493868486038461DF0EEFF0C9800E001208DF827000DF1AE
:203A40002703CDF83480A5E0FC0A0120BC0A012001218DF828100C990D900C2204A818F02D
:203A60008BF925460224ED1C8DF81840284622F09FFDAF1CADF8100017F8010B8DF81900F6
:203A800017F8010B22F098FC8146384622F090FDBD1C0E9015F8010B15F801AB15F8018B9F
:203AA0002E788DF82900700016F016FA0F9000286CD06D1C4EB183463746284622F078FD66
:203AC000AD1C7F1E2BF8020BF7D1B9F1000F57D0CDF8409015F8013BDDF83C903746AB46BB
:203AE0000C2FBDF8105011934ADA28461BF0DAFAC82815D14FF6FE701BF0D4FAC8280FD12F
:203B0000C34890F8CC38012100F6D40C0C981CF8082B9342C4BF131C081C491CC829F6DB59
:203B2000C74C4FF6FE7604EBC0046068668018B11DF06EFF0C9860606FB17E00304616F097
:203B4000CBF96060002808BF102419D060684946324621F0EBFFC9486580007867700DF1C8
:203B6000290620701099CDF800B00E9A0196119BCDF808A004A8CDF80C8008F035F80446A4
:203B80000F988DF828401DF043FF02E010208DF828000AAB0D9881464CE194F801B00121D6
:203BA0000228814604F103048DF82B101ED114F8010B03288DF8180005D0204622F0F8FC48
:203BC000ADF8100004E004A82146082221F0AEFF083414F8010B8DF81900204622F0E8FC03
:203BE000A41C11E0C40A01205001012002208DF81800204622F0DCFCA41CADF8100014F823
:203C0000010B8DF819000C98ADF81A0014F8010B22F0D2FB8046204622F0CAFCA41C0D903F
:203C2000B9F1020F14F8010B14F801AB14F8017B8DF82A001CBF14F8016B06F10A0006D197
:203C4000204622F0B5FCA41C064606F11400B8F1000F80B240D0FA2830DD6C68002C3BD1EF
:203C600006F11C0016F038F904466C6024B30C9804F11C0504A98DF82B000C222560201D06
:203C800021F054FFC4F810800D98A082E6829DF82A50257684F819A0A7760F23E376784CFA
:203CA000207808214FF47A7222F0D1FDB8B1207808211BF09BF912E010200EE000940DF1C9
:203CC0002A000D9A019041463346CDF808A004A8039707F089FF00E002208DF82B002BF083
:203CE0001F0BBBF1200F40F0C4800DF12B03A1E0BC0A01204FF0100A89468DF82CA05046A8
:203D000016F0EAF8071C00F094805D48E41C7860207822F051FB00287CD120780C9E3870C2
:203D2000B04687F80C80142016F0D6F80028B8606BD014F8011B017062782178A61C01EB45
:203D40000221418031787278B41C01EB02218180817914F8022B01F0F00102F00F020A43A7
:203D60008271B96814F8010BC871BD68EB79464673B1580016F0B0F8A860B8688568002D5D
:203D800008BF564604D03046BA68D179814231DC2078B9680873BD682B7B73B1580016F0B9
:203DA0009BF82861BD682B69002B08BF564606D0641C4046297B814210DC102E2BD1A86827
:203DC00010B11DF025FEBD68287B18B128691DF01FFEBD6828461DF01BFE1CE0627821787E
:203DE0002B6901EB022123F81010BD68A41C421CD0B2DFE7637821789268451CA41C01EBDF
:203E0000032122F81010E8B2BEE7564603E0C04620010020B8268DF82C603EB938461DF0CE
:203E200009FC8DF82C009DF82C0010B138461DF0EFFD0BAB4946DBE402200C9019E0C04612
:203E4000EC0900200C988DF810008DF81100E07804A921F059F89DF8117014219DF8100027
:203E60008DF81D7007AB8DF81C00022264201EF09DFA0C9813B0BDE8F08FC046FE040120DC
:203E8000671B01202DE9F04FADF13C0DC54C0B90C3480C91002147780E919FB137F00106F2
:203EA00008D0022F12D1207900F0F80141F00201204605E02046017901F0F80141F0010118
:203EC000017103E0207900F0F8002071261D3078402537F00102657100F00700307005D1BE
:203EE0008E20A0716FB940F0010009E0022F08D1AB4980200978A071012902D140F008005C
:203F0000A0710E99F170317150256572A020B071F171B072F172A089099140F43050A0813A
:203F20002174BAB1022F1CD1012019F0DBFD28B9206820F00F0040F0020004E0206820F02B
:203F40000F0040F001006FF30F1048F220210143216006E021684CF210106FF30F010843D6
:203F60002060924B9049A0791F780A9381F8320067B90E981AF0F4FE8B4890F832000009BB
:203F800011D30E9808A98DF8200009E0084690F83200000907D301200DF121018DF8210086
:203FA00052201DF0D5FE1BF077FA20F070FD800838BF0E9803D30E981FF016FD01200028AA
:203FC000DFF808A30D9040F0D8800FF005FE5FEA000B40F0C380744ADDF838802120742150
:203FE0002432174622F062FB002859D12120414674223B4622F09CF8002851D16A48408FFD
:204000004FF6FE7181424BD0674890F84A004FF00108082806D0042804D010F075FDDDF8F8
:2040200038803DE0C14642200DF122018DF822901DF08EFE07F12F0143201DF089FE07F13A
:204040002C0147201DF084FE07F11C014A201DF07FFE07F11A014B201DF07AFE07F1240114
:2040600028461DF075FE07F1160153201DF070FE07F12D0154201DF06BFE07F11801E12033
:204080001DF066FE484890F83200000938BFDDF8389052200DF122018DF822901DF058FE9B
:2040A0000E9D17E0DAF804100E9AA80000EBC5000C23401881460090294601201EF074FB8D
:2040C00030B999F80000FF2804BF099889F800006D1CADB23248BAF800104078A942E1DCD6
:2040E00030F0010001D10FF07BFC9448001D006800B180471EF0CEFBB8F1000F1BD022F0F2
:2041000027FA0A99888318B9307800F0F800307023484078022818BF012104D1224A0998A7
:20412000032182F84A000A98393741703946143022F0B1FB01E04FF0090B7F4D0999184F4A
:20414000A81C0180787818B91DF030FA38464078BBF1000FA94605D10E9904E01048DFF8B2
:20416000D891407801210D910F490A9D91F83C20012707FA02F1E96085E00FF02DFD10F087
:20418000C3FC094A21207421243222F095FA02A8FF210C2217F0F0FD0E9D574610E0C04616
:2041A000E40401204C1A012050010120C4030120294601200C2202AB1FF038F96D1CADB282
:2041C0003888A842F4DCB848407830F001000ED102A8FF21102217F0CFFD0E9D03202946A1
:2041E000102202AB1FF022F96D1C332DF6DB5348006800B180471FF05FFF099806220E99A4
:20420000ADF8100002A817F0B7FD142015F064FE5FEA00081BD0A34810300768A7B1032791
:204220000225A8B202A90622404421F07FFCAD1D7F1EF6D104A94046022221F077FC4C20A5
:204240001421424622F038FA40461DF0E1FB182015F042FE071C10D00E9D1822294617F013
:204260008BFD0620294618223B461FF0DFF86D1C032DF6DB38461DF0CBFB17F0E3FE8A48EB
:20428000DFF8B49040780D99864D012966D1B44F2437E8B1012807D002280BD1307800F0DC
:2042A000F80040F0020004E0307800F0F80040F001003070A34820F049FE002808BF0998BD
:2042C0000BD00A9A04210320917206E0DC0A01203178022001F0F8013170DDF8288088F8D4
:2042E000010022F020FA0B996F4E00F07F000818643080B20E90F06B0221C8F80C00FF20D4
:204300001EF032FD96494FF6FE70431C48870E46F0870998A1F848301EF018FE624840789D
:20432000012810D10C9801280AD0099902A8082217F022FD02A804E0100A01203409012009
:2043400009981DF0E5FC212074213A4622F0B4F9099802211EF008FD53484078DDF834A0E6
:2043600018B9A08940F00100A0812F6987B9122015F0B2FD0646002E2E616ED04FF6FE7039
:20438000B61F0327411C26F8060F7F1E7180FAD1BAF1000F61D1099906AB4C20022221F055
:2043A000C7FE002852D1BDF8180000284ED004284CDA182015F090FD03274FF002084FF606
:2043C000FE7B0646099C2B691FFA88F14C2006221B1921F0ADFE78BB2869015B8B452BD0DE
:2043E00056B300962018099A4188182306201EF0DBF930692A6900F2E93333611019418877
:2044000005F11402880000EBC10029691350081973694188880000EBC100801829694360A0
:20442000081941881822334606201EF0FFFF09993046182217F0A0FC7F1E04F1060408F123
:204440000608C0D116B130461DF0E2FA164B099971200822483321F06BFE13484778381C76
:2044600006D121F033FB21F01FFF0F48477817B121F012FF18B10120E870099E2E713248F5
:20448000324EC9F80C00C9F810607FB137F0010003D120F083F82F480BE020F07FF82E4888
:2044A00007E0C046CCE80020E404012020F076F82A482749BAF1000F086019D0284890F8CF
:2044C0006500A8B92748407890B9DDF82480622102AA404618F038FB02A841461FF048FCB9
:2044E000404614F033F902A81022414617F044FC0A98006950B10A9C1034076820681DF062
:2045000087FA0A99384600280861F6D10A9A099F01200146107002F10904577285200932C4
:2045200022F0C4F828B9852039460122234621F0FFFD0E9821F0FEF820F004FB50460FB0FE
:20454000BDE8F08F14070120A9EF000079630200C808012035780100115402009581010068
:2045600050010120E40401202DE9F04FBE48C84CADF1340D06902569406801214FF0E0471E
:20458000C06809934FF000080170C24808921F4080F800804FF0020000EA020008BF002888
:2045A00040F0E682DFF8F092DFF8F0A21E4611464FF4803018EA060700EA010008BF00280A
:2045C00033D141464FF4003011EA060700EA020008BF00280ED137464FF48000394000EA78
:2045E000020008BF002800F0B78285F8048019F089FDB1E285F80480EB201EF061FE4A4675
:20460000514682F800800878862801D11EF0DAFE22F059F9E1690A6882F804800968E16152
:2046200022F0D2FA21F058F996E285F804801EF0AFFE81262778A4F80C809949A770994DB9
:204640000860994B2E70FF221A702169069E087A801E81B230684A46D0F8000182F8008059
:20466000C0890B918842C0F26B82E1690831096804F1180001600426A6810B98657EA17E94
:2046800004F11902C01E80B2069EE37E0B9005EB01205178C1F301193168608101F1B80C82
:2046A000DCF80010237109780792002908BFB9F1020F00F04582B9F1020F00F3418219B1CB
:2046C00010F0070F00F03C82667800F00705AD1E022D08BF002E00F0338231B151460978AE
:2046E000862902D1002D40F02B82001300F00200022864DA35435AD1DCF81C0090F8830023
:20470000022851D0E1690C31097805A801700527A78122F0D8F8554606462878862840D1AC
:2047200006980068403001680F6837B9D0F80C05804706980068006C07689DF9140022F0F6
:2047400000F9787706980068016C096881F81E80006C9DF914100068C177304622F034FAFA
:204760002679678922F0AFF851460A7807F01007862A15D1BA4D05F11E031A88521C1A806C
:2047800087220A7022F020FAE879B04206D11FB9404615F0D1FD07E01B20FAE7E920F8E784
:2047A0000646304622F010FA21F096F8CAE151460878862803D11EF005FEA77866788FB1EA
:2047C00086B9012F00F0BC816089022F03D110F0070F40F0B581032F05D100F007010329A7
:2047E00001D0ADE16089010980F0AA81011301F00201022902DA810A80F0A281079949783E
:20480000C1F3810BBBF1010F4FEAA1110A9100F09781012900F09481B9F1020F14DA00F046
:204820000701012918BF03290ED1BBF1000F0BD10A9F002F00F0848106990968AC310968A2
:204840000F78002F00F07C81BC49B9F1020F0DD00A9E11F80B708A5DB918CFB25EB3C109D8
:2048600029D3BF1E12E0C046140100200A460A990BEB0207891809793A795218C109D7B2AD
:2048800014D20A995BEA010615D0BF1CFFB212E0B4180120B40A0120711B0120741B0120B7
:2048A000501B01206F1B01202D1A00200A995BEA010608BF02270B9AC0F30021781A61719E
:2048C0008242C0F23D81069E1046C01B4018316880B2D1F850122081743080B28847002813
:2048E0006678606100F02C814146742217F044FA84F8038062891EB9C14902F020000870C5
:20490000BF4861790678C446002E30D000292ED102F00700032808D0012828D106980068B4
:20492000D0F8D40090F882600EB306984068406906781EB121F02AFBFE2815D0069800682D
:20494000D0F84C02804750B906980068D0F84402804720B96289617994F803C007E004209E
:20496000E0706289617901E00420E07084466569268905F1740305F17400AB65079B686035
:2049800093F801A02E812089CAF301190029A5F85C001878AA8100F0780049EA00004CEA0E
:2049A000000028744FF0FF06AE730CBF2079404685F83AB085F849000A9885F83000A08967
:2049C000002FA0EB010086B2A68100F0B480E169E78068463A468919083114F069FABF19A0
:2049E000B8B2A0812846017C4FEAAA0212F0030F02F003076D4601F0400B42D0B9F1020F90
:204A0000434601D1C9090BD29DF801209DF8001001EB0221A0F844100DF10205A0F8421047
:204A2000814EB0F84410B6F846208A4203D04FF6FF728A4223D1032F14D06A78297801EBFD
:204A4000022189B24186B6F84420AD1C01208A4214D04FF6FF728A4218BF181C0EE0C04604
:204A60000418002060692946323021F014FF60693B363146323020F03DFF08350346002B2C
:204A800056D00798407886111ED06169B9F1020F03D0087CC00903D309E05BEA070306D18A
:204AA0006A782878AD1C00EB0220A1F84200032E05D068782A7802EB00220A8504E06069F0
:204AC0002946283021F0E7FE06990968AC310A686089167886B1B9F1020F0DDA00F0070271
:204AE000012A18BF032A0BD162692FB94F4BB2F842201B8893421BD100F00702032A05D0F3
:204B0000012A18D1886A90F88200A0B1D1F89C116069884778B9079881786769407884F859
:204B20000380C1F3011100F078000843387402E019F0E8FA06E00BF05DFC03E068870200F2
:204B400020F0BCFE21F0BFFEE1690A6882F804800968E16122F038F80899099E20204746F9
:204B60000840374008BF002830D020F06FFE2DE02F4991F90000002803DD91F90000401E0B
:204B800008702C4991F90000002803DD91F90000401E0870114640461E464FF08077084077
:204BA000374008BF00280DD0234991F90000002803DD91F90000401E087020480121017059
:204BC00021F098F885F8048019F09CFADFF864C09CF90070B7B108994FF0E047022037408C
:204BE00000EA010008BF002816D09CF90000002812DC06980068D0F84C0580470CE0C04672
:204C0000711B01200E48069F80F800803868D0F8582441460846904706984068C06880F87E
:204C200000800DB0BDE8F08FD40501201A060120B70A0120B60A0120B80A0120B50A012052
:204C4000B20A01202DE9F04F0446B54EA578F06A4FF0000BADF14C0D2946312911DC31290D
:204C600000F0E280DFF8C882B24F142914D91C3900F06281491E00F01B81133900F0E980D6
:204C80007FE2323900F0BA80491E69D0491E012929D9891E17D074E2DFE811F06402A50232
:204CA000A102500299027302730224024E010A010D02F8018F0273028902DE017302730298
:204CC000C901B801760240B1C06830B1E01C21F06FFCF16AC968884700E003208DF838004C
:204CE00036210EAB61E201270028A8468DF839702ED0406A60B3204602A920F059F9342D66
:204D0000044618BF584602D121F052FCA41C2578E0B902A821F047FA641C01280DD1BDF874
:204D20000C00294622461FF03DFBBDF80C00012803D1E22021461DF00BF8F06A466A02AB5B
:204D400093E803002A462346B04702E0042000E003208DF8390041460DF139033D46A5E075
:204D6000002840D0C06900283DD0204602A920F01FF9054602A821F016FA012818BF5846B0
:204D800003D1BDF80C0021F00BF90446284621F00FFCAD788046F82DA8BFF725A81C5FFAE5
:204DA00080F9484615F098F8071C1AD0A4B9F06ABE1C02ABC469009693E8030042462B46D2
:204DC000A047041C08D1584638704A4633213B467D7061201DF0EAFA38461CF019FE1CB973
:204DE0000DE2102400E0032408A85946022216F0C3FF8DF82040332108ABFCE168B1806A82
:204E000058B104A9204620F0D3F8F06A826A04AF97E803009047014600E0594602A820F0C9
:204E200079FE32210422D8E160B1806950B1204602A920F0BDF8F06A826902AF97E8030080
:204E4000904700E003208DF83A0031210DF13A03ABE101258DF83B5010B3006900B3204625
:204E600002A920F0A5F8042120F0F0FA5FEA000814D015F031F8F46A071C14D059464246CC
:204E800016F07AFF246902A803C842463B46A0478DF83B0038461CF0BBFD04E0052000E0B6
:204EA00003208DF83B0030210DF13B032A46A3E1E41C8DF83CB0204621F07AFBA846092D0D
:204EC000064609D0A01C21F073FB0746201D21F06FFBA41D054602E0A778E578241D242E70
:204EE00003D12088352606AC069030461FF0D6F97919884216DB27B93046294622461FF0B6
:204F000051FA30462946224621F0D6FB30B9012E0BD1E22021461CF01BFF04E00A2002E0A4
:204F2000D4DB002002208DF83C0041460FAB3CE1671B0120A08702002646F61C304621F090
:204F400037FBA9468046B8F1240F46D021F028F80446082D08BFB67803D0B01C21F028FB00
:204F6000064640461FF09AF986422BDA5CBB801B85B2F82DA8BFF725A81C5FFA80FA504632
:204F800014F0AAFF071C1BD0B81C59462A4616F0F3FEBB1C404631462A4621F0C9F848B965
:204FA00058463870524649463B467D7061201DF0FDF900E00A2438461CF02AFD1CB91EE1FF
:204FC000102400E002240AA85946022216F0D4FE8DF8284049460AAB0DE135205946042211
:204FE00007AB21F0A5F838B9BDF81C20584602210425ADF8262002E00120594602258DF84C
:2050000024008DF8251009AB08214FE7E01C21F0CFFA242802D01FF041F900E058468DF85F
:205020002C00001213210BAB8DF82D00E3E0E01C21F0BEFA0546601D21F0BAFA0146242DE9
:2050400003D0284621F0B5FB00E058468DF83F0012210DF13F03A8E0E078211D70B1401EFC
:205060000AD10878012805D020B1522010A91FF0D5FB08E0522002E0022002E0E0201CF0B0
:2050800067FE8DF840000F2110AB8EE041460125087814F8031F8DF842500429A8BF022065
:2050A00003DA37F8111019F00BFD8DF842000B210DF14203FAE6E41C20780428A8BF02204F
:2050C0000ADA601C21F074FA267841460246087837F8161021F0BBFB8DF843000A210DF1F7
:2050E000430362E0E01C21F063FA0646601D21F05FFAE779E51C0146242E19D0B94205F1B7
:20510000050510DD30465A4621F0D0FA8DF844009DF8440009280ED16FB1304639462A4670
:2051200021F0CAFA07E030462A4621F0BFFA00E058468DF84400072111AB36E00127E41C9A
:20514000E2208DF8457021461CF002FE30B938460821224621F0B0FA8DF8450003210DF101
:205160004503FBE5E078284C30B1401E47D121F0FBF901202060FEE721F0F6F901202060B8
:20518000FEE74FF0020B3AE094F903001F4F8DF83D003868D0F830240DF13D01E020904735
:2051A00014210DF13E038DF83E00012224E08DF841B00E210DF14103F7E721F0B4FA8DF888
:2051C00030000C210CAB00128DF8310013E0E22002A91FF023FB0421082202AB0CE00C4BE7
:2051E00002210A2208E05920062701218DF834000DAB8DF83570022261201DF0D7F85846F6
:2052000013B0BDE8F08FC0467C0520431401002054870200D249D14A03462DE9F04301F1F1
:2052200008009D78177800680024ADF1440D2A46402A2ADC402A00F0DE81202A14DC202A2A
:2052400000F010820A2A45D9103A00F03282521E00F02582D21E00F01982521E00F00F8219
:20526000501E00F0048263E1B2F1210000F0F481401E00F0EB81401E00F0DE81401E00F028
:20528000D481401E00F0C98152E14A2A11DC4A2A00F08E81413A00F0A381D21E00F09C818E
:2052A000521E30D0D21E00F08B81521E00F084813EE1B2F14B0000F06881801E00F06181D7
:2052C000163800F04F81401E00F039817C3800F031812DE1121E00F0CE80521E70D0521EC6
:2052E00000F02A82521E00F01582521E00F00282521E00F0F281521E41D0D21E00F0DE81A4
:20530000521E1DD014E1184606A9C01C20F01CFB2E468DF81E0048B99DF81800BDF8187029
:205320008DF81F0038128DF8200005E00DF11F00FF21022216F020FD03220DF11E031CE031
:20534000DB1C5F782E460D4638B9684620F022FF012069460DF08AFCA8603FB1052F03D096
:2053600064211DF053FD03E0012129701CF0E2FF8DF836400DF1360301223546EFE11846C2
:205380008DF83740C71C384621F012F9BF782E46C0F304213FB9052903D04FF6FF718142A0
:2053A0000BD1204607E0052903D04FF6FF71814203D14FF0FF30D64908600DF13703DBE788
:2053C000202014F089FD061C00F0CD81FF21202216F0D2FC731C01202146082220F0A8FE76
:2053E000751C071C18BF01272146042205AB842020F09EFE083560B99DF8170028709DF83E
:20540000160068709DF81500A8709DF81400E87001E047F0020783202146022207AB20F0CA
:2054200087FE2D1D38B99DF81C002870BDF81C000012687001E047F00407ED1C6120214694
:2054400001226B1E20F074FE08B147F008072146102262202B4620F06BFE08B147F0100713
:20546000012120223346672037701CF09FFF30461CF0CEFA77E1264637F001008DF83C6020
:205480000AD10FA818F040FF9DF83C1080460E2000EB4100C7B201E0A0460E27384614F03B
:2054A0001BFD5FEA00093DD0054621460822012005F8016B2B4620F03BFE21F049F80835C6
:2054C000072305F8010B001205F8010BA84A05F8013B1078A74905F8010B4B7833F00103E8
:2054E00016D19DF83C0028709DF83C308BB141466D1C20469DF83C2082420ADD0A782A70F1
:2055000031F8022B401CC0B212126A70AD1CF1E72E70672021463A464B461CF047FF48464B
:205520001CF076FAB8F1000F00F01D8146469EE7022418E122464720E021134611E1184600
:20554000C11C4A7A087A00EB02208A7A8DF82E400EF0AEFD0DF12E0300E1C046E50401205B
:20556000CCE8002018468DF82F400822C01C0146684620F0DBFA68461AF070F80DF12F03D5
:20558000ECE018460FF096FCEDE0D91C6846082220F0CCFA8DF80840CDF80CD002208DF8CB
:2055A000090002A815F0F2FF0CAB8DF83000D5E018461CF019FFD6E018461FF042FAD2E08E
:2055C000DE1C307871781FF039F80222307000127070294630466FE0184612F0C7FFC2E04E
:2055E000D81C20F0E5FFADF80200684616F0FEFB01AE0822EDE7D91C01A8082220F096FA5A
:20560000684618F043FBBDF802000DF122038DF8220000128DF8230016E0F5208DF8274064
:205620000DF126038DF826000EE0F52011460DF131038DF831003AE0F520FF278DF82A0052
:205640000DF12A038DF82B70022288E0F5200DF132038DF8320081E0F5200DF133038DF845
:2056600033007BE0F5200DAB8DF8340076E068462146092216F080FB162109220DE0684602
:205680002146062216F078FB152105E068462146062216F071FB142106226E469AE7D87856
:2056A0001CF0FCFE11210DF135038DF83500012256E01A78D81C1021034651E021F088FAA5
:2056C000054620F021FF2C496843B0FBF1F1684620F020FA09210422DFE7DE1C62201EF02A
:2056E000DDFD01463246622020F0E6FF0EAB8DF8380033E0DE1C61201EF0D0FD01463246FC
:20570000612020F0D9FF0DF139038DF8390025E0900A0120D81C04211FF098FE0490842072
:205720001EF0BCFD014604AA842020F0C5FF0DF13A038DF83A0011E0D81C20F039FFADF869
:205740001A0083201EF0AAFD01460DF11A02832020F0B2FF0DF13B038DF83B000122294684
:2057600067201CF023FE204611B0BDE8F083C046C4030120E404012040420F002DE9F04F59
:20578000CF48D04CDFF840830F46390CADF1240D80F06582790927D300230370D749437097
:2057A000184620F02FFFD649012020F02BFFD549062020F027FFD449072020F023FFD849C2
:2057C000082020F01FFF0522D6498DF80C300DF10D0020F0ABF941208021062203AB1CF0C9
:2057E000E5FD87F0100044E2B80828BF87F0020080F03F822068390931D217F4706F08BF4B
:20580000002000F03682380B04D3002020F0D2FB87F40067F80A04D3012020F0CBFB87F47C
:205820008067B80A04D3022020F0C4FB87F40077780A04D3032020F0BDFB87F480773846D1
:2058400017E22168884205D0016829601CF0E0F8286804E0016821601CF0DAF8206808BBCA
:20586000606858B1C27EC17E521E491ED6B2C17626B960681CF0CCF8002060602668002E2F
:2058800008BF00280BD04446207808214FF47A7220F0DDFF18B12078082119F0A7FB87F02C
:2058A0000800E6E1017B491E0173C9B20029C8D005460068D3E70546D9F8046028781A28B7
:2058C0000EDC1A2854D0401E00F06C81401E00F02B81801E00F0B581801E00F01781BBE1BD
:2058E000243800F0A881AD3800F09E81801E03D02A3800F08B81AFE1A87C0930C0B280464B
:2059000014F0EAFA061C00F0A781A97800F8011B6988091200F8011B99F80C1000F8011B4F
:2059200099F80E1000F8011BB9F80E10091200F8011B99F8101000F8011B99F8111000F837
:20594000011B99F8141000F8011BB9F81410091200F8011BAA7CA96920F0E8F84520FF21B1
:20596000424633461CF022FD30461CF051F873E1B5F824A0E97B0AF114001FFA80F820F057
:20598000F5FE002640B9A87B032805D0B8F1F00FD8BF4FF0810B16DD08F10A004FF0820B06
:2059A0001FFA80F8B8F1FA0F0DDD0AF1100014F093FA061C00F0508106F11000A8EB0A0493
:2059C00070601FFA84F8404614F086FA079020B9002E00F041813046A0E00446A87804F8AC
:2059E000010B6888001204F8010B287904F8010BA888BBF1820F4FEA202004F8010B1AD10F
:205A0000A87B04F8010BA87B032805D0A8792070E8880012607004E0A91D2046082220F0EB
:205A200085F8E87B083404F8010B287C04F8010B288A001207E0A87904F8010BE888001240
:205A400004F8010BE87B04F8010B287D04F8010B687D04F8010BA87D04F8010B687E04F82A
:205A6000010BE969204620F055F8241DBBF1820F04D0002004F8010B504606E0002004F8F3
:205A8000010B04F801AB4FEA2A2004F8010B0E480078DEB10B4909680A4B31604FF47A7290
:205AA0001E6008210F23337320F0D1FE20B106480078082119F09AFAE869B060706807E00B
:205AC00088040120FC0A0120671B012020465444A96A524620F02AF895F82C0004F8010BB3
:205AE000A88D5FFA88F85946001204F8010B95F82E00079E2070442032E7C0466DE301001B
:205B00002F350200D1180200E9360200A878401DC0B214F0E1F9002800F09E80064623E7BA
:205B2000212802005487020029790B2000EB4100C0B21FF0C7F9002800F08E80A9782E7915
:205B40008DF80010EC788DF802608DF801400DF10301FEB1AA792C79EE880A70022C4FEACF
:205B600026218DF804100DF1050113DB2A7A2C792E890A70032C4FEA26218DF806100DF191
:205B8000070107D1AA7A6E890A7031128DF808100DF109012A7BAE890A7032124A701FF045
:205BA00097FA59E0002E57D070788DF81500B0788DF816003078FA2819DC9DF8150000F028
:205BC0001E00162811DA2C499DF815000D4600F01F00820050194068091D30B1895830460C
:205BE00088478DF8140028B9BEE6012000E004208DF814009DF8150020F01F0020287FF466
:205C0000B3AE60200021032205ABABE66878AE78EC788DF8180006AB8DF8196003228DF8BC
:205C20001A404420802103E06B1C4520C02101221CF0BCFB10E0F0783346401DC2B2692044
:205C4000F0E7F078401DC4B2A11E701CC9B220F0B1F8A41904F8010C48461FF039FA0748CE
:205C6000007819F095F95FEA00097FF424AE87F4004009B0BDE8F08F88040120671B012096
:205C80002DE9FC47D44C0F460646F80B80F00C826078B90F80F0AC81B90880F09F81DFF884
:205CA0004C83F90A80F00281390B80F0CC80380907D2F80FC0F02E8227F0804717F02CFD90
:205CC00028E220F000FE81461FF042FA002800F0B480082020F08AFC002840F0AE8080206A
:205CE00020F084FC002840F0A880684613F014FA012803D10098002800F09F8094F841023A
:205D0000002840F09A8000250126E8B220F0ACF948B1837A3BB1867290F9090006FA00F01A
:205D2000C0B21DF0AFF96D1C032DEED3032084F8240004F5CE7020F0C0FD484620F044FF1A
:205D4000C34800252A460168056050F8081CD44940F8085C04F160001FF009F9404600685C
:205D6000006B8047A168401A010BE06AC1F1FF3282422CBF08444FF0FF30E06294F83000EE
:205D800020B12069E16AB1EBC02F25D91FF0F0F9294600B13146081C1BD0C24840F60901ED
:205DA00001804580417B06F00F0221F00F010A434273017B05F00F0321F00F0143EA0102E3
:205DC00002732946416020F0BFFA418811F4406FFBD084F83060E5621AF0A2FFD1482946A7
:205DE000056002201EF0F6FE02201DF00DFD112011F00AF8207818B96068503020F079FD76
:205E0000C948007810B90E2010F0FEFF94F8310020B184F8315005201DF0F6FCC348A06249
:205E200084F82450B4F9B400B4F9B610884214BF0220072015F092F802E0484620F0C4FEE7
:205E400027F008073AE720B104201DF0DDFC0020607065681CF090FD38B128462D6A6FF479
:205E6000807100224FF00073A847E06858B140460068006B8047E2686168801AC860000B1D
:205E8000C8600026E660AA4904F1600000221FF06EF80221D4F8A00084F8241018B104F192
:205EA000E00020F02EFD27F4006707E720F00BFD06461FF04DF9D4F898100028894600F043
:205EC0008480002900F081809A49042504F16000002284F824501FF04AF8304620F074FEE8
:205EE00004F5CE7020F0E9FC40460068006B8047E0604FF0010884F8018028461DF09CFCBE
:205F0000D9F810006060D9F81000816AC90803D3436A294600229847404618F001FE6068FB
:205F200080F81980606811F08FF86568D5F808A040F60A02D01F564600F1010C00E01E46AF
:205F4000736833B119888A4203D0884218BF8C45F5D100217160727B08F00F0322F00F02FE
:205F600013437373D9F80C201288904224D06046904221D02B8F03B3E96305F13802518062
:205F800095F8440001F00F0320F00F00034385F8443095F8450008F00F0320F00F00034396
:205FA00085F845307260707B01F00F0520F00F0045EA0001717300E0E160504620F0C4F976
:205FC000514640461EF006FE02E0304620F0FCFD27F480679EE0C04668F200200AF00CF833
:205FE000D4F8A00008B927F0020793E08C010010514A116841F08001116020B104201DF00B
:2060000003FC0020607020F05EFC80464B480068016804208847216A81421BD1357ECDB19F
:20602000A568BDB1D4F8A8506DB1E968098840F60300884204D0E9680988401C884202D16F
:2060400006F1140001E006F110001BF041FD06E01410044040F6C41131617161206240463F
:2060600020F0B2FD1CF088FC80B1356A30466FF4807100224FF00073A847D4F898000028E8
:2060800008BF47F0020701D017F046FBF569002130464FF080630A46A84727F0005739E003
:2060A00049F00100601A012020F00DFCD4F8B06066B306F1280106C90A234FF0E0450B4032
:2060C000154008BF002B21D106F1280191E8000306F1280595E8060006F1280322EA09020B
:2060E00021EA080183E8060020F06EFDB16879B1B9F1000F08BFB8F1000F09D03069B6F904
:206100003010B5684B464246A84701E020F05CFD27F4804727B104F1E000394620F0F1FBC6
:20612000BDE8FC87000004601A8702005D460100DD37010031510200CC210840E0010010CD
:206140002DE9F04FADF17C0D1B91C0491C923CC9064610A83CC00EC980E80E0000248DF865
:206160004240327F8DF84340B08D8DF84D40D6F828C0ADF844401746ADF85A00F0898DF85C
:2061800054706146ADF84A00087800F00303022B8DF8400000F3FD8123461D93491C1E939D
:2061A00043083CD200F00C0EBEF10C0F0CD043093CBF11F8013B8DF84230BEF1080F04BFCA
:2061C00001238DF84C3001D08DF84C40BEF10C0F0AD0737903F00303012B0CD140F00C00EA
:2061E00073898DF8400004E04D780B78891C03EB0523ADF84430430911D24D780B78891CC2
:2062000003EB0523ADF846300B784D78891C03EB0523ADF8483011F8013B8DF8433011F8E7
:20622000013B30F07F058DF855301ED00B7833F003058DF8413040F0A88103F0030EBEF1D6
:20624000030F00F0A28113F0030F01F101010ED011F8013B00F00305022D8DF8573004BFF7
:2062600011F8013B8DF8583001E08DF841401491A1EB0C017F1AFFB2BA42C0F28681D21BBB
:206280008DF85470D1B28DF84D100F4300F08181C10907D370891BF05BFB002840F07981BC
:2062A0009DF8400000F00C012746091F08BF0127820932D301221E9279B3B28920F048F96D
:2062C000904202D1F08D000A0DD220F041F9904221D0F18D080A38BF101C07D39DF8400044
:2062E00000F003032DE07089ADF85A20804620F02FF9BDF85A10884205D0404619F06BFCD1
:20630000002800F04681A448026810A940469047002840F03E819DF84000F18D00F00303D2
:206320000A0A0ED2C2090CD39DF8412012F0030F07D100F00C020C2A03D0082A1CBF0122A6
:206340001D92DFF86082022B00F00081012B00F0CE8010F0030F40F01C81904890F82F005F
:20636000012803D1B579002D00F013819DF8540002221A900B0A9DF84240BDF846B0BDF8FE
:2063800048A09DF855E09DF857C0DDF850908DF86420B0899DF84350ADF85C0075D24546AD
:2063A00005F11C021468002F52D11D9F17B110A913F07FFA7A484178022936D100780128F4
:2063C00033D1B07C002830D070891BF0C1FA022801D0707948B37449B2893C208B1F33F89E
:2063E000064F944204D19C78F77CBC4200F0D180401EF4D16878891F3C234FF6FE7731F8EA
:20640000064FA74202D05B1EF9D1C2E00A80F27C8A700C228A8004211BF0DAFA28B9687898
:2064200004214FF4FA7220F012FAF07C1E9F00901C9D0197594C0295B07C1B9B0390B4F805
:20644000482017A910A811F003FDA2E0FC840200307C002C8DF8560000F09B8020F078F819
:20646000BDF85C20904240F0948030791E9F00901C9D01971B9A02951D9B039196F8300038
:2064800010A9049017A8A04783E08DF820208DF822508DF82340ADF830107089ADF8180067
:2064A0008DF835E0ADF826B0ADF828A0CDF82C901A9B8DF836C0327CADF82A3035798DF8C9
:2064C0003220B47C8DF8335096F832108DF83440324F8DF83810B7F84800ADF8240096F8CD
:2064E00030708DF8377006A805F080FD51E01D9FB58937B1080A04D2284610A913F0D9F9B9
:20650000B5899DF85400B6791030C0B21EF0DAFC071C3ED07D81022038703E737C709DF864
:2065200054203A7207F110057D609DF84000800928BF01247C72149978681FF0F7FA4546E1
:206540006D1C287839461AF01BF922E09DF84100B189454624352B6810F0030F10D110A841
:2065600007901248ADF8181006A91DF0CDFA80B1062141730068407B21461AF0EDFD08E068
:206580003BB110A82246984703E08DF84D408DF854401FB0BDE8F08FC408012050010120B0
:2065A000E4040120E006012034030020B70502002DE9F04F4FF0FF084146ADF14C0D0E91FE
:2065C0000F914FF0000910914E46089609960A96AD4C0B9604F1300B0C96E0680D964946DB
:2065E00011919EE0E068710306AA042320F096F8119903AA30461EF0D9FF02AA3046012153
:206600001EF0D4FF3046022101AA1EF0CFFF069800F0FF0028709DF81900069F6870C7F36F
:206620000140E8709DF80E30AB702878FF2834D0BDF80C70FE2830D04FF6FF70B8422AD108
:2066400007A81BF00DFFE06871034FF088524FF4005320F063F8BA484FF4005750F8041D99
:206660003F1FBFB2B1F1FF3F07F1885201D1032FF4D810684FF0010A514600F0FF03FF2B54
:2066800018BF8A46491C000A0529F6DB106007981FF034FA5744EF8001E01020E8809DF881
:2066A0000A00BDF8087028719DF806302F81BDF804206B7129786A81E068FF292AD0FE29BD
:2066C00022D07E291AD07C2912D078290BD0702904D00D99491CC9B20D9120E00C99491C99
:2066E000C9B20C911BE00B99491CC9B20B9116E00A990F96491CC9B20A9110E009990E9678
:20670000491CC9B209910AE00899B046491CC9B2089104E009F1010710965FFA87F9761C0E
:20672000F6B2E578B54200F323810D9F002F38D10898022835DA0C98022832DA0998022864
:206740002FDA4D452BD00C98C0B90898A0B90B980A99084325D01DF0E9FF854219DCB9F1AC
:20676000000F14D094F83200FE211CF0EDFFE5780120DDF8408015E0012013E0089860B97C
:20678000B9F1000F07D11DF0D1FF854201DC062008E0032006E00220EBE7022002E011982F
:2067A00000E004200028A07000F0CC80401E49D0401E00F0AA80401E06D0401E00F09880D8
:2067C000801E00F094800EE11DF0B0FF05460C2084F83C5015FB00B0817E84F83D10C07E27
:2067E00084F83E000EF006FAE2782D1895FBF2F050432D1AE8B284F83200401C90FBF2F1E4
:206800005143401A84F831007C201CF099F8FF2810D17E201CF094F8FF280BD1FF201CF038
:206820008FF8FF2806D178201CF08AF8FF2808BF94F8310084F833000C2110FB01B0808B5F
:20684000E0868FE00F9F08F1010090FBF5F184F832806943FF2FA0EB0100C1B284F8311086
:2068600014D10E98FF2804D10C200E9111FB00B004E00146880000EBC100584484F8331050
:20688000808BE086AFE0C046C01900203A46D0B2910084F8330001EBC2015944898B172917
:2068A000E18640F2A080C91F01AA89B212F02CF99DF80F00C0083FD3119F0097BDF812207E
:2068C000E18E94F833000323891AC91F01AA89B209F0E8FA002840F08680BDF810100029BC
:2068E00000F081809DF8140019F024FF7BE0FEE7119EB54226DD304610F026FA6178E5781D
:20690000761CF6B201436170F3E708F1010084F8328090FBF5F16943401A84F831005FFAA9
:2069200088F010F011FA6070FE215FFA88F01CF00BFF012084F83500119801F083FF52E0DE
